{
  "_format": "hh-sol-artifact-1",
  "contractName": "LazyBetFactory",
  "sourceName": "contracts/LazyBetFactory.sol",
  "abi": [
    {
      "inputs": [],
      "stateMutability": "nonpayable",
      "type": "constructor"
    },
    {
      "inputs": [
        {
          "internalType": "address",
          "name": "owner",
          "type": "address"
        }
      ],
      "name": "OwnableInvalidOwner",
      "type": "error"
    },
    {
      "inputs": [
        {
          "internalType": "address",
          "name": "account",
          "type": "address"
        }
      ],
      "name": "OwnableUnauthorizedAccount",
      "type": "error"
    },
    {
      "anonymous": false,
      "inputs": [
        {
          "indexed": true,
          "internalType": "address",
          "name": "betAddress",
          "type": "address"
        },
        {
          "indexed": true,
          "internalType": "address",
          "name": "initiator",
          "type": "address"
        }
      ],
      "name": "BetCreated",
      "type": "event"
    },
    {
      "anonymous": false,
      "inputs": [
        {
          "indexed": true,
          "internalType": "address",
          "name": "previousOwner",
          "type": "address"
        },
        {
          "indexed": true,
          "internalType": "address",
          "name": "newOwner",
          "type": "address"
        }
      ],
      "name": "OwnershipTransferred",
      "type": "event"
    },
    {
      "inputs": [],
      "name": "allBets",
      "outputs": [
        {
          "internalType": "address[]",
          "name": "",
          "type": "address[]"
        }
      ],
      "stateMutability": "view",
      "type": "function"
    },
    {
      "inputs": [
        {
          "internalType": "uint256",
          "name": "",
          "type": "uint256"
        }
      ],
      "name": "bets",
      "outputs": [
        {
          "internalType": "address",
          "name": "",
          "type": "address"
        }
      ],
      "stateMutability": "view",
      "type": "function"
    },
    {
      "inputs": [],
      "name": "betsCount",
      "outputs": [
        {
          "internalType": "uint256",
          "name": "",
          "type": "uint256"
        }
      ],
      "stateMutability": "view",
      "type": "function"
    },
    {
      "inputs": [
        {
          "internalType": "string",
          "name": "_message",
          "type": "string"
        },
        {
          "internalType": "address",
          "name": "_token",
          "type": "address"
        },
        {
          "internalType": "uint256",
          "name": "_minValue",
          "type": "uint256"
        },
        {
          "internalType": "address",
          "name": "_judge",
          "type": "address"
        },
        {
          "internalType": "uint256",
          "name": "_endTime",
          "type": "uint256"
        }
      ],
      "name": "createBet",
      "outputs": [
        {
          "internalType": "address",
          "name": "",
          "type": "address"
        }
      ],
      "stateMutability": "nonpayable",
      "type": "function"
    },
    {
      "inputs": [],
      "name": "lazyBetBytecode",
      "outputs": [
        {
          "internalType": "bytes",
          "name": "",
          "type": "bytes"
        }
      ],
      "stateMutability": "view",
      "type": "function"
    },
    {
      "inputs": [],
      "name": "owner",
      "outputs": [
        {
          "internalType": "address",
          "name": "",
          "type": "address"
        }
      ],
      "stateMutability": "view",
      "type": "function"
    },
    {
      "inputs": [],
      "name": "renounceOwnership",
      "outputs": [],
      "stateMutability": "nonpayable",
      "type": "function"
    },
    {
      "inputs": [
        {
          "internalType": "bytes",
          "name": "_lazyBetBytecode",
          "type": "bytes"
        }
      ],
      "name": "setLazyBetBytecode",
      "outputs": [],
      "stateMutability": "nonpayable",
      "type": "function"
    },
    {
      "inputs": [
        {
          "internalType": "address",
          "name": "newOwner",
          "type": "address"
        }
      ],
      "name": "transferOwnership",
      "outputs": [],
      "stateMutability": "nonpayable",
      "type": "function"
    }
  ],
  "bytecode": "0x608060408190526200001260a0620000c9565b601f1982820381018352601f9091011660405260029062000034908262000175565b5034801562000041575f80fd5b5033806200006857604051631e4fbdf760e01b81525f600482015260240160405180910390fd5b62000073816200007a565b5062000241565b5f80546001600160a01b038381166001600160a01b0319831681178455604051919092169283917f8be0079c531659141344cd1fd0a4f28419497f9722a3daafe3b4186f6b6457e09190a35050565b6113388062000c3b83390190565b634e487b7160e01b5f52604160045260245ffd5b600181811c908216806200010057607f821691505b6020821081036200011f57634e487b7160e01b5f52602260045260245ffd5b50919050565b601f8211156200017057805f5260205f20601f840160051c810160208510156200014c5750805b601f840160051c820191505b818110156200016d575f815560010162000158565b50505b505050565b81516001600160401b03811115620001915762000191620000d7565b620001a981620001a28454620000eb565b8462000125565b602080601f831160018114620001df575f8415620001c75750858301515b5f19600386901b1c1916600185901b17855562000239565b5f85815260208120601f198616915b828110156200020f57888601518255948401946001909101908401620001ee565b50858210156200022d57878501515f19600388901b60f8161c191681555b505060018460011b0185555b505050505050565b6109ec806200024f5f395ff3fe608060405234801561000f575f80fd5b5060043610610090575f3560e01c8063715018a611610063578063715018a6146101035780638da5cb5b1461010b578063c395434d1461011b578063d73d6ec51461012e578063f2fde38b14610143575f80fd5b806304fc518a146100945780631a8ba72f146100b257806322af00fa146100c3578063352289b4146100ee575b5f80fd5b61009c610156565b6040516100a99190610618565b60405180910390f35b6001546040519081526020016100a9565b6100d66100d1366004610631565b6101e2565b6040516001600160a01b0390911681526020016100a9565b6101016100fc3660046106cf565b61020a565b005b610101610222565b5f546001600160a01b03166100d6565b6100d6610129366004610737565b610235565b61013661045f565b6040516100a991906107b5565b610101610151366004610801565b61051d565b600280546101639061081a565b80601f016020809104026020016040519081016040528092919081815260200182805461018f9061081a565b80156101da5780601f106101b1576101008083540402835291602001916101da565b820191905f5260205f20905b8154815290600101906020018083116101bd57829003601f168201915b505050505081565b600181815481106101f1575f80fd5b5f918252602090912001546001600160a01b0316905081565b61021261055a565b600261021e8282610898565b5050565b61022a61055a565b6102335f610586565b565b5f80600280546102449061081a565b80601f01602080910402602001604051908101604052809291908181526020018280546102709061081a565b80156102bb5780601f10610292576101008083540402835291602001916102bb565b820191905f5260205f20905b81548152906001019060200180831161029e57829003601f168201915b5050505050905080515f036103175760405162461bcd60e51b815260206004820152601860248201527f42797465636f64652063616e6e6f7420626520656d707479000000000000000060448201526064015b60405180910390fd5b6001546040515f9161034891339060200191825260601b6bffffffffffffffffffffffff1916602082015260340190565b6040516020818303038152906040528051906020012090505f818351602085015ff59050803b610376575f80fd5b5f819050806001600160a01b03166236bbd1338b8b8e8b8d6040518763ffffffff1660e01b81526004016103af96959493929190610958565b5f604051808303815f87803b1580156103c6575f80fd5b505af11580156103d8573d5f803e3d5ffd5b50506001805480820182555f9182527fb10e2d527612073b26eecdfd717e6a320cf44b4afac2b0732d9fcbe2b7fa0cf60180546001600160a01b0319166001600160a01b0387169081179091556040513394509092507f48b04fa0d868115ea072e7aaca3952eb298cf49f2b6961c56ca9260d37d62b529190a35098975050505050505050565b6001546060905f9067ffffffffffffffff81111561047f5761047f610648565b6040519080825280602002602001820160405280156104a8578160200160208202803683370190505b5090505f5b60015481101561051757600181815481106104ca576104ca6109a2565b905f5260205f20015f9054906101000a90046001600160a01b03168282815181106104f7576104f76109a2565b6001600160a01b03909216602092830291909101909101526001016104ad565b50919050565b61052561055a565b6001600160a01b03811661054e57604051631e4fbdf760e01b81525f600482015260240161030e565b61055781610586565b50565b5f546001600160a01b031633146102335760405163118cdaa760e01b815233600482015260240161030e565b5f80546001600160a01b038381166001600160a01b0319831681178455604051919092169283917f8be0079c531659141344cd1fd0a4f28419497f9722a3daafe3b4186f6b6457e09190a35050565b5f81518084525f5b818110156105f9576020818501810151868301820152016105dd565b505f602082860101526020601f19601f83011685010191505092915050565b602081525f61062a60208301846105d5565b9392505050565b5f60208284031215610641575f80fd5b5035919050565b634e487b7160e01b5f52604160045260245ffd5b5f67ffffffffffffffff8084111561067657610676610648565b604051601f8501601f19908116603f0116810190828211818310171561069e5761069e610648565b816040528093508581528686860111156106b6575f80fd5b858560208301375f602087830101525050509392505050565b5f602082840312156106df575f80fd5b813567ffffffffffffffff8111156106f5575f80fd5b8201601f81018413610705575f80fd5b6107148482356020840161065c565b949350505050565b80356001600160a01b0381168114610732575f80fd5b919050565b5f805f805f60a0868803121561074b575f80fd5b853567ffffffffffffffff811115610761575f80fd5b8601601f81018813610771575f80fd5b6107808882356020840161065c565b95505061078f6020870161071c565b9350604086013592506107a46060870161071c565b949793965091946080013592915050565b602080825282518282018190525f9190848201906040850190845b818110156107f55783516001600160a01b0316835292840192918401916001016107d0565b50909695505050505050565b5f60208284031215610811575f80fd5b61062a8261071c565b600181811c9082168061082e57607f821691505b60208210810361051757634e487b7160e01b5f52602260045260245ffd5b601f82111561089357805f5260205f20601f840160051c810160208510156108715750805b601f840160051c820191505b81811015610890575f815560010161087d565b50505b505050565b815167ffffffffffffffff8111156108b2576108b2610648565b6108c6816108c0845461081a565b8461084c565b602080601f8311600181146108f9575f84156108e25750858301515b5f19600386901b1c1916600185901b178555610950565b5f85815260208120601f198616915b8281101561092757888601518255948401946001909101908401610908565b508582101561094457878501515f19600388901b60f8161c191681555b505060018460011b0185555b505050505050565b5f60018060a01b038089168352808816602084015286604084015260c0606084015261098760c08401876105d5565b60808401959095529290921660a09091015250949350505050565b634e487b7160e01b5f52603260045260245ffdfea2646970667358221220460432a053b1bef71800458a1f5d9154ddcd57ebb4287b0ea8cbb4c7d63306b164736f6c63430008180033608060405234801561000f575f80fd5b5060015f55611317806100215f395ff3fe6080604052600436106100e3575f3560e01c80635e56c02911610087578063c19d93fb11610057578063c19d93fb1461026b578063e21f37ce14610291578063ea8a1af0146102b2578063fc0c546a146102c6575f80fd5b80635e56c029146101cc57806380ce60d1146101eb57806389a78f1a1461020a578063963e63c714610256575f80fd5b80634e71d92d116100c25780634e71d92d146101675780635229a6fd1461017b578063573255f41461018e5780635c39fcc1146101ad575f80fd5b806236bbd1146100e75780633197cbb61461010857806335c1d34914610130575b5f80fd5b3480156100f2575f80fd5b50610106610101366004610e05565b6102e5565b005b348015610113575f80fd5b5061011d60065481565b6040519081526020015b60405180910390f35b34801561013b575f80fd5b5061014f61014a366004610ef2565b6103ec565b6040516001600160a01b039091168152602001610127565b348015610172575f80fd5b50610106610414565b610106610189366004610f16565b6106c4565b348015610199575f80fd5b5060025461014f906001600160a01b031681565b3480156101b8575f80fd5b5060015461014f906001600160a01b031681565b3480156101d7575f80fd5b5061011d6101e6366004610ef2565b61093f565b3480156101f6575f80fd5b50610106610205366004610f40565b610955565b348015610215575f80fd5b5061023f610224366004610f67565b60096020525f90815260409020805460019091015460ff1682565b6040805192835260ff909116602083015201610127565b348015610261575f80fd5b5061011d60045481565b348015610276575f80fd5b506007546102849060ff1681565b6040516101279190610f94565b34801561029c575f80fd5b506102a5610afb565b6040516101279190610fba565b3480156102bd575f80fd5b50610106610b87565b3480156102d1575f80fd5b5060035461014f906001600160a01b031681565b5f60075460ff1660038111156102fd576102fd610f80565b146103235760405162461bcd60e51b815260040161031a90611006565b60405180910390fd5b600180546001600160a01b038089166001600160a01b03199283161790925560038054928816929091169190911790556004849055600561036484826110b7565b506006829055600280546001600160a01b0319166001600160a01b038381169182179092556007805460ff1916600190811790915554600354600454604051928516947faffde2b058c12215deec0d7dad580a6c2e1cf5b90b73294ca7dc69d9fcc64a1a946103dc9493909116926005918991611177565b60405180910390a2505050505050565b600881815481106103fb575f80fd5b5f918252602090912001546001600160a01b0316905081565b61041c610c70565b600260075460ff16600381111561043557610435610f80565b14806104575750600360075460ff16600381111561045557610455610f80565b145b6104ae5760405162461bcd60e51b815260206004820152602260248201527f54686520626574206973206e6f7420636c6f736564206f722063616e63656c6c604482015261195960f21b606482015260840161031a565b335f908152600960205260409020548061050a5760405162461bcd60e51b815260206004820152601b60248201527f546865207061727469636970616e7420686173206e6f74206265740000000000604482015260640161031a565b600360075460ff16600381111561052357610523610f80565b036105365761053181610c98565b610683565b600c54335f9081526009602052604090206001015460ff90811691161461059f5760405162461bcd60e51b815260206004820152601b60248201527f546865207061727469636970616e7420686173206e6f7420776f6e0000000000604482015260640161031a565b600b54600a545f916105b09161125e565b600c549091505f90600a906105ca9060019060ff16611277565b60ff16600281106105dd576105dd611236565b01541161063a5760405162461bcd60e51b815260206004820152602560248201527f4469766973696f6e206279207a65726f20696e20636c61696d2063616c63756c60448201526430ba34b7b760d91b606482015260840161031a565b600c5461068190600a906106539060019060ff16611277565b60ff166002811061066657610666611236565b01546106728484611290565b61067c91906112a7565b610c98565b505b60405181815233907f96ac0606ef4c8af6038d773d39b2ba6e4c526368caf867264d45f2b8c4e6f00c9060200160405180910390a2506106c260015f55565b565b6106cc610c70565b600160075460ff1660038111156106e5576106e5610f80565b146107025760405162461bcd60e51b815260040161031a90611006565b60065442106107475760405162461bcd60e51b8152602060048201526011602482015270151a194818995d081a185cc8195b991959607a1b604482015260640161031a565b6004548110156107b25760405162461bcd60e51b815260206004820152603060248201527f546865206265742076616c7565206d757374206265206772656174657220746860448201526f616e206d696e696d756d2076616c756560801b606482015260840161031a565b335f908152600960205260409020541561080e5760405162461bcd60e51b815260206004820152601f60248201527f546865207061727469636970616e742068617320616c72656164792062657400604482015260640161031a565b61081781610d48565b600880546001810182555f919091527ff3f7a9fe364faab93b216da50a3214154f22a0a2b415b23a84c8169e8b636ee30180546001600160a01b03191633179055604080518082019091528181526020810183610875576002610878565b60015b60ff908116909152335f908152600960209081526040909120835181559201516001909201805460ff19169290911691909117905580600a836108bc5760016108be565b5f5b60ff16600281106108d1576108d1611236565b015f8282546108e0919061125e565b909155503390507f7df19a783369d9cefb06e18b396518f817b48766b74157758eda633a62f58fa78284610915576002610918565b60015b6040805192835260ff90911660208301520160405180910390a261093b60015f55565b5050565b600a816002811061094e575f80fd5b0154905081565b6002546001600160a01b031633146109be5760405162461bcd60e51b815260206004820152602660248201527f4f6e6c7920746865206a756467652063616e20706572666f726d20746869732060448201526530b1ba34b7b760d11b606482015260840161031a565b600160075460ff1660038111156109d7576109d7610f80565b146109f45760405162461bcd60e51b815260040161031a90611006565b600c5460ff1615610a475760405162461bcd60e51b815260206004820152601f60248201527f54686520726573756c742068617320616c7265616479206265656e2073657400604482015260640161031a565b8060ff1660011480610a5c57508060ff166002145b610a995760405162461bcd60e51b815260206004820152600e60248201526d125b9d985b1a59081c995cdd5b1d60921b604482015260640161031a565b600c805460ff831660ff1991821681179092556007805460029216821790555460408051928352516001600160a01b03909116917f6a52701b73d36bbb20aa6097166a94b05f7e9d03b33877d8758b3671ee13afee919081900360200190a250565b60058054610b0890611033565b80601f0160208091040260200160405190810160405280929190818152602001828054610b3490611033565b8015610b7f5780601f10610b5657610100808354040283529160200191610b7f565b820191905f5260205f20905b815481529060010190602001808311610b6257829003601f168201915b505050505081565b6001546001600160a01b03163314610bf45760405162461bcd60e51b815260206004820152602a60248201527f4f6e6c792074686520696e69746961746f722063616e20706572666f726d20746044820152693434b99030b1ba34b7b760b11b606482015260840161031a565b600160075460ff166003811115610c0d57610c0d610f80565b14610c2a5760405162461bcd60e51b815260040161031a90611006565b6007805460ff191660031790556001546040516001600160a01b03909116907f3da0066e36e42d42506d608b165fa163dae178a01610e8bce4ee306f50c86862905f90a2565b60025f5403610c9257604051633ee5aeb560e01b815260040160405180910390fd5b60025f55565b6003546001600160a01b0316610cd257604051339082156108fc029083905f818181858888f1935050505015801561093b573d5f803e3d5ffd5b60035460405163a9059cbb60e01b8152336004820152602481018390526001600160a01b039091169063a9059cbb906044015b6020604051808303815f875af1158015610d21573d5f803e3d5ffd5b505050506040513d601f19601f8201168201806040525081019061093b91906112c6565b50565b6003546001600160a01b0316610d9957803414610d455760405162461bcd60e51b815260206004820152600f60248201526e496e636f72726563742076616c756560881b604482015260640161031a565b6003546040516323b872dd60e01b8152336004820152306024820152604481018390526001600160a01b03909116906323b872dd90606401610d05565b80356001600160a01b0381168114610dec575f80fd5b919050565b634e487b7160e01b5f52604160045260245ffd5b5f805f805f8060c08789031215610e1a575f80fd5b610e2387610dd6565b9550610e3160208801610dd6565b945060408701359350606087013567ffffffffffffffff80821115610e54575f80fd5b818901915089601f830112610e67575f80fd5b813581811115610e7957610e79610df1565b604051601f8201601f19908116603f01168101908382118183101715610ea157610ea1610df1565b816040528281528c6020848701011115610eb9575f80fd5b826020860160208301375f60208483010152809750505050505060808701359150610ee660a08801610dd6565b90509295509295509295565b5f60208284031215610f02575f80fd5b5035919050565b8015158114610d45575f80fd5b5f8060408385031215610f27575f80fd5b8235610f3281610f09565b946020939093013593505050565b5f60208284031215610f50575f80fd5b813560ff81168114610f60575f80fd5b9392505050565b5f60208284031215610f77575f80fd5b610f6082610dd6565b634e487b7160e01b5f52602160045260245ffd5b6020810160048310610fb457634e487b7160e01b5f52602160045260245ffd5b91905290565b5f602080835283518060208501525f5b81811015610fe657858101830151858201604001528201610fca565b505f604082860101526040601f19601f8301168501019250505092915050565b6020808252601390820152722a3432903132ba1034b9903737ba1037b832b760691b604082015260600190565b600181811c9082168061104757607f821691505b60208210810361106557634e487b7160e01b5f52602260045260245ffd5b50919050565b601f8211156110b257805f5260205f20601f840160051c810160208510156110905750805b601f840160051c820191505b818110156110af575f815560010161109c565b50505b505050565b815167ffffffffffffffff8111156110d1576110d1610df1565b6110e5816110df8454611033565b8461106b565b602080601f831160018114611118575f84156111015750858301515b5f19600386901b1c1916600185901b17855561116f565b5f85815260208120601f198616915b8281101561114657888601518255948401946001909101908401611127565b508582101561116357878501515f19600388901b60f8161c191681555b505060018460011b0185555b505050505050565b60018060a01b03861681525f602086602084015260a060408401525f865461119e81611033565b8060a087015260c060018084165f81146111bf57600181146111db57611208565b60ff19851660c08a015260c084151560051b8a01019550611208565b8b5f5260205f205f5b858110156111ff5781548b82018601529083019088016111e4565b8a0160c0019650505b5050505050606084018690526001600160a01b0385166080850152915061122c9050565b9695505050505050565b634e487b7160e01b5f52603260045260245ffd5b634e487b7160e01b5f52601160045260245ffd5b808201808211156112715761127161124a565b92915050565b60ff82811682821603908111156112715761127161124a565b80820281158282048414176112715761127161124a565b5f826112c157634e487b7160e01b5f52601260045260245ffd5b500490565b5f602082840312156112d6575f80fd5b8151610f6081610f0956fea264697066735822122067cf1cef9d20f141bceef974810f8b4c7b4e0856d88df0696c95ba8f60ba70c464736f6c63430008180033",
  "linkReferences": {},
  "deployedLinkReferences": {}
}